:100000000C9472000C948F000C948F000C948F0051
:100010000C948F000C9403030C94EF020C948F004B
:100020000C948F000C948F000C948F000C948F0014
:100030000C948F000C948F000C948F000C948F0004
:100040000C948F000C948F000C948F000C948F00F4
:100050000C948F000C948F000C948F000C948F00E4
:100060000C948F000C948F000C948F000C948F00D4
:100070000C948F000C948F000C948F000C948F00C4
:100080000C948F000C948F000C948F000C948F00B4
:100090000C948F000C948F000C948F000C948F00A4
:1000A0000C948F000C948F000C948F000C948F0094
:1000B0000C948F000C948F000C948F000C948F0084
:1000C0000C948F000C948F000C948F000C948F0074
:1000D0000C948F000C948F000C948F000C948F0064
:1000E0000C948F0011241FBECFEFD1E2DEBFCDBF35
:1000F00012E0A0E0B2E0EEE3F3E102C005900D9261
:10010000A231B107D9F722E0A2E1B2E001C01D920D
:10011000AE33B207E1F70E940F040C949D090C94D2
:10012000000086E69EE00197F1F7000040984198B4
:1001300080E388B9429A8FEF97E40197F1F700C006
:100140000000429886E69EE00197F1F70000409893
:10015000419880E388B9429A8FEF97E40197F1F7CD
:1001600000C00000429886E69EE00197F1F700008B
:100170004098419880E388B9429A8FEF97E40197BD
:10018000F1F700C00000429886E69EE00197F1F783
:1001900000004098419880E288B9429A8FEF97E436
:1001A0000197F1F700C000004298089598B19F7040
:1001B00098B998B1282F207F922B98B940984198F0
:1001C000429AEFEFF7E43197F1F700C00000429850
:1001D00098B19F7098B998B18295807F892B88B922
:1001E00040984198429A8FEF97E40197F1F700C049
:1001F0000000429808950E94910086E69EE00197D3
:10020000F1F7000088E20E94D60081E00E94D6004B
:1002100086E00E94D6008EE00E94D60080E80E9410
:10022000D600089598B19F7098B998B1282F207F73
:10023000922B98B9409A4198429AEFEFF7E43197A0
:10024000F1F700C00000429898B19F7098B998B13A
:100250008295807F892B88B9409A4198429A8FEF86
:1002600097E40197F1F700C000004298089580E8F4
:100270000E94D6000895CF93DF93EC0188818823F4
:1002800031F021960E94120189918111FBCFDF91FB
:10029000CF910895823071F018F4813031F00895D3
:1002A000833069F0843081F008958FE7860F0E94D3
:1002B000D60008958FEB860F0E94D600089583E93B
:1002C000860F0E94D600089583ED860F0E94D60007
:1002D00008950F931F93CF93DF938A01E901882339
:1002E00011F0611103C00E94370102C00E944A014F
:1002F000C530D10509F0DBC09801329522952F70E9
:1003000023273F702327A7E4B3E00E94BD069695FC
:1003100087959695879596958795C096909319029F
:10032000809318020E941201980136952795369500
:10033000279536952795A5ECB0E20E94BD06AC0145
:10034000529542954F7045275F70452750931C0288
:1003500040931B029A01ADECBCEC0E94BD06969541
:10036000879596958795969587959C01220F331FC3
:10037000880F991F880F991F880F991F820F931F4D
:10038000481B590BCA01C09690933D0280933C02D2
:100390000E94120104C0C330D10509F08DC098013C
:1003A0003695279536952795ABE7B4E10E94BD06B3
:1003B000AC015695479550931C0240931B029A013D
:1003C000ADECBCEC0E94BD069695879596958795F9
:1003D000969587959C01220F331F880F991F880FD0
:1003E000991F880F991F820F931F481B590BCA0131
:1003F000C0969093300280932F020E9412019801C0
:10040000ADECBCEC0E94BD06AC01569547955695E7
:1004100047955695479550931C0240931B029A01AD
:100420000E94BD0696958795969587959695879592
:100430009C01220F331F880F991F880F991F880F67
:10044000991F820F931F481B590BCA01C0969093A6
:100450002A02809329020E94120103C0C130D105F3
:1004600001F59801ADECBCEC0E94BD069695879510
:1004700096958795969587959C01220F331F880F37
:10048000991F880F991F880F991F820F931F081BB0
:10049000190BC801C09690933B0280933A020E94C8
:1004A000120126976CF085E40E94120109C0C43045
:1004B000D10509F070CF38CFC230D10579F69FCF82
:1004C000DF91CF911F910F91089587B1876F87B901
:1004D00088B1807888B90895E1ECF0E0108210923C
:1004E000C00086E08093C20087E08093C400109231
:1004F000C50088E9808308956C98749A08956D9872
:10050000759A0895269A2E9A0895279A2F9A0895F3
:100510006F98779A089586B1886088B9089586B1F2
:10052000877F88B908953B9A439808950E94650291
:100530000E9493020E946C020E947C020E947F0231
:100540000E9482020E9485020E9488020895F89407
:10055000EAE6F0E0808182608083EC9A78940895E6
:10056000F894EAE6F0E0808188608083ED9A7894E0
:100570000895E1E8F0E010828CEF8093850081E03F
:100580008093840093E0909389008FEF809388009C
:1005900090938B0080938A0090938D0080938C00C1
:1005A00090938700809386008BEA8093800010925E
:1005B00082008CE0808308958FEF80930401109275
:1005C00005010895F8940E9496020E94A7020E94D5
:1005D000B0020E94B9020E94DC02789408951F9232
:1005E0000F920FB60F9211248F93809116028F5F96
:1005F0008093160281E0809315028F910F900FBEB9
:100600000F901F9018951F920F920FB60F92112402
:100610008F9380911E028F5F80931E0281E08093F2
:100620001A028F910F900FBE0F901F901895109285
:100630008D00682F70E080E090E00E942F062BE78D
:1006400034E14EEE5FE30E949B0520E030E04CE099
:1006500052E40E9437050E94030660938C000895BF
:1006600010928B00682F70E080E090E00E942F06CF
:100670002BE734E14EEE5FE30E949B0520E030E083
:100680004CE052E40E9437050E94030660938A0002
:100690000895E0ECF0E0908195FFFDCF8093C600D7
:1006A0000895CF93DF93EC018881882331F0219660
:1006B0000E94490389918111FBCFDF91CF91089569
:1006C000EF92FF920F931F93CF93DF937C0184E20D
:1006D0000E9449038CE20E9449031092140280E0B8
:1006E00000E012E0C1E2D2E0F701E80FF11D8081E5
:1006F0001F928F931F930F93DF93CF930E94CC068B
:10070000CE010E9451038CE20E94490380911402A1
:100710008F5F809314020F900F900F900F900F90A7
:100720000F90843008F38AE00E9449038DE00E9414
:100730004903DF91CF911F910F91FF90EF900895A2
:1007400080913102809334028091170280933502A8
:1007500080911302809336028091120280933702B7
:1007600084E392E00E94600308951F93CF93DF9388
:10077000F894109213021092120210922B0210920F
:1007800032021092330280E011E0C5E0D1E00E9415
:100790001703809133020E943003679B10C06FE003
:1007A00082E00E944A0183E092E00E943B011093A4
:1007B000120210932B0288818F60888308C06FE03B
:1007C00082E00E944A0186E092E00E943B01669B23
:1007D00010C06FE0812F0E944A0189E092E00E94E0
:1007E0003B0110931302109332028881806F88833B
:1007F00008C06FE0812F0E944A018CE092E00E94C5
:100800003B01909133029F5F90933302953B10F42C
:10081000892FBDCF7894DF91CF911F9108950E94C9
:10082000E2020E94FB0061E081E00E944A018FE049
:1008300092E00E943B012FEF8FEF99E5215080401D
:100840009040E1F700C000008FEF80931302809387
:1008500012021FEFC5E0D1E080912C0290912D0291
:10086000883C910530F00E94B50310922D02109241
:100870002C020E94A00380911302823010F4109386
:10088000130280911202823010F4109312028091B0
:10089000310290911702891B80932E0280913202BF
:1008A000813021F48881806F888303C088818F70B4
:1008B000888380912B02813021F488818F60888326
:1008C00003C08881807F888380911502813009F080
:1008D00048C010921A0210922E0210921D021DC0E2
:1008E00040911F02509120024F5F5F4F50932002B2
:1008F00040931F0223E030E069E081E00E9469013B
:1009000080911F0290912002883C910534F081E093
:1009100080931D0210921A0204C080911A0288234B
:10092000F9F280911D02811112C0809131028F5F16
:10093000809331020E948B022FEF8FE794E02150C9
:1009400080409040E1F700C000000E948F021092AA
:10095000200210921F0210921A0210921D02109291
:10096000150280911A02813009F048C010921502D8
:1009700010922E0210921D021DC040911F02509134
:1009800020024F5F5F4F5093200240931F0223E0ED
:1009900030E069E082E00E94690180911F0290913D
:1009A0002002883C910534F081E080931D02109272
:1009B000150204C0809115028823F9F280911D026E
:1009C000811112C0809117028F5F809317020E94DD
:1009D0008B022FEF8FE794E0215080409040E1F7A9
:1009E00000C000000E948F021092200210921F028D
:1009F0001092150210921D0210921A0240913102BB
:100A0000552747FD509523E030E061E081E00E94EA
:100A1000690140911702552747FD509523E030E0CA
:100A200065E081E00E94690140912C0250912D0205
:100A30004F5F5F4F50932D0240932C0223E030E034
:100A400061E082E00E94690140913102552747FD33
:100A5000509580911702481B510987FD539523E05B
:100A600030E06CE082E00E946901F6CE5058BB276E
:100A7000AA270ED048C139D130F03ED120F031F450
:100A80009F3F11F41EF42EC10EF4E095E7FB24C144
:100A9000E92F4AD180F3BA176207730784079507D5
:100AA00018F071F49EF562C10EF4E0950B2EBA2F8A
:100AB000A02D0B01B90190010C01CA01A001112464
:100AC000FF27591B99F0593F50F4503E68F11A1610
:100AD000F040A22F232F342F4427585FF3CF4695A1
:100AE00037952795A795F0405395C9F77EF41F16C3
:100AF000BA0B620B730B840BBAF09150A1F0FF0F8D
:100B0000BB1F661F771F881FC2F70EC0BA0F621F78
:100B1000731F841F48F4879577956795B795F79568
:100B20009E3F08F0B3CF9395880F08F09927EE0FFA
:100B30009795879508950CD0E6C0DED040F0D5D0CB
:100B400030F021F45F3F19F0C7C0511110C1CAC085
:100B5000EBD098F39923C9F35523B1F3951B550BAB
:100B6000BB27AA2762177307840738F09F5F5F4F80
:100B7000220F331F441FAA1FA9F333D00E2E3AF0C1
:100B8000E0E830D091505040E695001CCAF729D0DB
:100B9000FE2F27D0660F771F881FBB1F261737072A
:100BA0004807AB07B0E809F0BB0B802DBF01FF275A
:100BB00093585F4F2AF09E3F510568F08DC0D7C013
:100BC0005F3FECF3983EDCF3869577956795B79594
:100BD000F7959F5FC9F7880F911D9695879597F9AF
:100BE0000895E1E0660F771F881FBB1F6217730728
:100BF0008407BA0720F0621B730B840BBA0BEE1F3D
:100C000088F7E095089598D088F09F5790F0B92F15
:100C10009927B751A0F0D1F0660F771F881F991F51
:100C20001AF0BA95C9F712C0B13081F09FD0B1E087
:100C300008959CC0672F782F8827B85F39F0B93F97
:100C4000CCF3869577956795B395D9F73EF4909553
:100C50008095709561957F4F8F4F9F4F0895E894D1
:100C600009C097FB3EF490958095709561957F4FF4
:100C70008F4F9F4F9923A9F0F92F96E9BB279395A2
:100C8000F695879577956795B795F111F8CFFAF4B2
:100C9000BB0F11F460FF1BC06F5F7F4F8F4F9F4FE3
:100CA00016C0882311F096E911C0772321F09EE841
:100CB000872F762F05C0662371F096E8862F70E0A7
:100CC00060E02AF09A95660F771F881FDAF7880F81
:100CD0009695879597F9089597F99F6780E870E052
:100CE00060E008959FEF80EC089500240A941616A2
:100CF000170618060906089500240A94121613060A
:100D0000140605060895092E0394000C11F4882397
:100D100052F0BB0F40F4BF2B11F460FF04C06F5FB3
:100D20007F4F8F4F9F4F089557FD9058440F551F89
:100D300059F05F3F71F04795880F97FB991F61F05D
:100D40009F3F79F087950895121613061406551FD4
:100D5000F2CF4695F1DF08C0161617061806991F40
:100D6000F1CF86957105610508940895E894BB2735
:100D700066277727CB0197F90895A29FB001B39F0B
:100D8000C001A39F700D811D1124911DB29F700D94
:100D9000811D1124911D0895AEE0B0E0E2EDF6E072
:100DA0000C9474090D891E8986E08C831A8309834B
:100DB0008FEF9FE79E838D83AE01475E5F4F6F8904
:100DC000788DCE0101960E94EE06EF81F885E00F46
:100DD000F11F10822E96E4E00C949009ACE0B0E094
:100DE000E4EFF6E00C9466097C016B018A01FC01DA
:100DF00017821682838181FFBDC1CE0101964C010D
:100E0000F7019381F60193FD859193FF81916F0125
:100E1000882309F4ABC1853239F493FD859193FFA2
:100E200081916F01853229F4B70190E00E94D608C4
:100E3000E7CF512C312C20E02032A0F48B3269F026
:100E400030F4803259F0833269F420612CC08D3245
:100E500039F0803339F4216026C02260246023C039
:100E6000286021C027FD27C030ED380F3A3078F4D4
:100E700026FF06C0FAE05F9E300D1124532E13C0EA
:100E80008AE0389E300D1124332E20620CC08E3241
:100E900021F426FD6BC1206406C08C3611F4206855
:100EA00002C0883641F4F60193FD859193FF81914C
:100EB0006F018111C1CF982F9F7D9554933028F4F5
:100EC0000C5F1F4FFFE3F9830DC0833631F083378A
:100ED00071F0833509F05BC022C0F80180818983FD
:100EE0000E5F1F4F44244394512C540115C0380108
:100EF000F2E06F0E711CF801A080B18026FF03C0E4
:100F0000652D70E002C06FEF7FEFC5012C870E9456
:100F1000CB082C0183012C852F77222E17C0380196
:100F2000F2E06F0E711CF801A080B18026FF03C0B3
:100F3000652D70E002C06FEF7FEFC5012C870E9426
:100F4000C0082C012C852068222E830123FC1BC0A5
:100F5000832D90E048165906B0F4B70180E290E086
:100F60000E94D6083A94F4CFF50127FC859127FE1C
:100F700081915F01B70190E00E94D60831103A9448
:100F8000F1E04F1A51084114510471F7E5C084365D
:100F900011F0893639F5F80127FF07C060817181AA
:100FA000828193810C5F1F4F08C060817181882707
:100FB00077FD8095982F0E5F1F4F2F76B22E97FFEB
:100FC00009C090958095709561957F4F8F4F9F4F89
:100FD0002068B22E2AE030E0A4010E940809A82E61
:100FE000A81844C0853729F42F7EB22E2AE030E0BD
:100FF00025C0F22FF97FBF2E8F36C1F018F4883547
:1010000079F0B4C0803719F0883721F0AFC02F2FA6
:101010002061B22EB4FE0DC08B2D8460B82E09C0A5
:1010200024FF0AC09F2F9660B92E06C028E030E04A
:1010300005C020E130E002C020E132E0F801B7FE57
:1010400007C060817181828193810C5F1F4F06C050
:101050006081718180E090E00E5F1F4FA4010E94CB
:101060000809A82EA818FB2DFF77BF2EB6FE0BC0CF
:101070002B2D2E7FA51450F4B4FE0AC0B2FC08C07C
:101080002B2D2E7E05C07A2C2B2D03C07A2C01C06F
:10109000752C24FF0DC0FE01EA0DF11D8081803307
:1010A00011F4297E09C022FF06C07394739404C012
:1010B000822F867809F0739423FD13C020FF06C0A9
:1010C0005A2C731418F4530C5718732C731468F4B7
:1010D000B70180E290E02C870E94D60873942C859B
:1010E000F5CF731410F4371801C0312C24FF12C04F
:1010F000B70180E390E02C870E94D6082C8522FF60
:1011000017C021FF03C088E590E002C088E790E0A7
:10111000B7010CC0822F867859F021FD02C080E211
:1011200001C08BE227FD8DE2B70190E00E94D60856
:10113000A51438F4B70180E390E00E94D6085A94D1
:10114000F7CFAA94F401EA0DF11D8081B70190E078
:101150000E94D608A110F5CF332009F451CEB70173
:1011600080E290E00E94D6083A94F6CFF70186819B
:10117000978102C08FEF9FEF2C96E2E10C948209D9
:10118000FC010590615070400110D8F78095909552
:101190008E0F9F1F0895FC01615070400190011057
:1011A000D8F7809590958E0F9F1F08950F931F93EA
:1011B000CF93DF93182F092FEB018B8181FD03C0A3
:1011C0008FEF9FEF20C082FF10C04E815F812C8186
:1011D0003D81421753077CF4E881F9819F012F5F1D
:1011E0003F4F39832883108306C0E885F985812F16
:1011F0000995892B29F72E813F812F5F3F4F3F8330
:101200002E83812F902FDF91CF911F910F91089501
:10121000FA01AA27283051F1203181F1E8946F9327
:101220006E7F6E5F7F4F8F4F9F4FAF4FB1E03ED0CD
:10123000B4E03CD0670F781F891F9A1FA11D680F6B
:10124000791F8A1F911DA11D6A0F711D811D911D9E
:10125000A11D20D009F468943F912AE0269F112413
:101260003019305D3193DEF6CF010895462F477077
:10127000405D4193B3E00FD0C9F7F6CF462F4F70D2
:10128000405D4A3318F0495D31FD4052419302D030
:10129000A9F7EACFB4E0A6959795879577956795D6
:1012A000BA95C9F700976105710508959B01AC01D6
:1012B0000A2E06945795479537952795BA95C9F7FD
:1012C000620F731F841F951FA01D08952F923F92D8
:1012D0004F925F926F927F928F929F92AF92BF9246
:1012E000CF92DF92EF92FF920F931F93CF93DF93F2
:1012F000CDB7DEB7CA1BDB0B0FB6F894DEBF0FBE4F
:10130000CDBF09942A88398848885F846E847D849B
:101310008C849B84AA84B984C884DF80EE80FD809D
:101320000C811B81AA81B981CE0FD11D0FB6F89413
:0E133000DEBF0FBECDBFED010895F894FFCFD4
:10133E00256400324400324E00314400314E0048E4
:02134E00690034
:00000001FF
